S01900004A696D696E795F7573623273657269616C2E7372656340
S11300008EC00000A8C00000A6C00000A4C000006C
S1130010A2C00000A0C000009EC000009CC0000060
S11300209AC0000098C0000096C0000086C400007A
S113003023C5000090C000008EC000008CC00000EA
S11300408AC0000088C0000086C0000084C0000090
S113005082C0000080C000007EC00000FBC700001A
S11300607AC0000078C0000076C0000074C00000B0
S113007072C0000032034A0069006D0069006E001E
S1130080790020005500530042002D005200530017
S1130090320033003200200041006400610070002F
S11300A07400650072000000200349004100530001
S11300B02000520057005400480020004100610015
S11300C06300680065006E0000000403090409026F
S11300D03E00020100C032090400000102020100D6
S11300E00524001001042402060524060001070566
S11300F082030800FF09040100020A00000007054A
S11301000402100005070583021000051201100106
S113011002000008EB034B2001000102DC01112462
S11301201FBECFEFD2E0DEBFCDBF11E0A0E0B1E053
S1130130EEEFF1E102C005900D92AC31B107D9F7B1
S113014022E0ACE1B1E001C01D92A034B207E1F7B6
S11301508FD60C94FD0854CF292F33272230310534
S113016059F02330310569F02130310521F582E160
S113017090E02CE031E028C08EE390E02EEC30E0FB
S113018023C099278130910551F018F0029769F046
S113019017C0EAECF0E0849190E09F0115C0E8EA12
S11301A0F0E0849190E09F010FC0E4E7F0E08491D7
S11301B090E09F0109C080E090E020E030E004C0BE
S11301C080E090E020E030E0FA013183208308955C
S11301D0CF93DF93EC01FC0170968BE0DF011D925D
S11301E08A95E9F782E08C83898783E08E8761E0D2
S11301F0CE010196AFD2882351F061E0CE0106967C
S1130200A9D2882321F061E0CE010B96A3D2DF911D
S1130210CF910895CF93FC019EB39430E9F484897F
S11302209589A689B789892B8A2B8B2BB9F0C62F80
S113023081818F708093E9008091E80085FD08C07A
S1130240E8EEF0E080818E778083F5D2811107C0DB
S1130250C093F10080E003C082E001C082E0CF914E
S11302600895FC019EB3943009F584899589A68983
S1130270B789892B8A2B8B2BD9F081818F7080933E
S1130280E9008091F2008823B1F0E8EEF0E090817B
S113029080818E77808395FD0DC0CDD281110BC0F6
S11302A0E8EEF0E090819E779083089582E00895CF
S11302B082E0089580E00895FC019EB3943091F4A7
S11302C084899589A689B789892B8A2B8B2B51F030
S11302D081818F708093E9008091E80080FF02C0E3
S11302E0CF01BFCF08952EB3243039F5FC014489E2
S11302F0558966897789452B462B472B09F18681D9
S11303008F708093E9008091E80082FF1CC0809187
S1130310F200882321F02091F10030E002C02FEF99
S11303203FEF8091F200811111C0E8EEF0E080818E
S11303308B778083822F932F08958FEF9FEF0895FB
S11303408FEF9FEF08958FEF9FEF0895822F932FE4
S113035008950895CF93DF93FC019091E80093FFF3
S11303609FC0208130E080913C0290913D02821731
S1130370930709F095C0EF0180913902813259F059
S113038018F48032B9F18CC0823209F45EC0833231
S113039009F478C085C080913802813A09F080C0A0
S11303A0E8EEF0E08081877F8083808180FFFDCF4D
S11303B08C899D89AE89BF89E1EFF0E08083492F64
S11303C05A2F6B2F77274083AD0166277727408309
S11303D08B2F9927AA27BB278083888D8083898DBB
S11303E080838A8D8083E8EEF0E080818E7780833D
S11303F000D256C080913802813209F051C0E8EE33
S1130400F0E08081877F808304C08EB3882309F461
S113041047C0808182FFF9CFE1EFF0E03081208195
S1130420908180813C8B2D8B9E8B8F8B8081888FDC
S11304308081898F80818A8FE8EEF0E080818B77DC
S11304408083D7D1CE014FD62BC080913802813220
S113045071F4E8EEF0E08081877F8083CAD18091D7
S11304603A0290913B02998B888BCE0172DF579AA6
S11304705F9887EC90E00197F1F700C000005F9A65
S11304805F9A0EC080913802813251F4E8EEF0E0B8
S11304908081877F8083ADD160913A02CE0159DF9C
S11304A0DF91CF910895EF92FF921F93CF93DF9343
S11304B020913E0230913F022617370758F061150C
S11304C0710539F4E8EEF0E020812E7720839B015A
S11304D001C09B01A82FB92F40E0E8EEF0E062EFE5
S11304E070E00F2EF1EFEF2EF12CF02D51E010E023
S11304F02AC08EB38823E9F18530E9F1808183FD38
S11305003CC0808182FD2EC0808180FF1CC0EB0135
S1130510888190E02115310579F08830910560F4E7
S11305204D91E70148832150310901962115310588
S113053019F088309105A1F7452F089709F0412F4C
S113054080818E7780832115310599F64111D1CFB1
S113055009C08EB3882399F0853099F0808183FF98
S113056003C011C0E8EEF0E0808182FFF2CF80E0AA
S11305700BC082E009C083E007C081E005C082E0CF
S113058003C083E001C081E0DF91CF911F91FF9010
S1130590EF900895EF92FF921F93CF93DF932091F2
S11305A03E0230913F022617370758F06115710556
S11305B039F4E8EEF0E020812E7720839B0101C01E
S11305C09B01E82FF92F60E0A8EEB0E042EF50E085
S11305D00F2EF1EFEF2EF12CF02D71E010E02DC075
S11305E08EB3882309F43FC0853009F43EC08C9152
S11305F083FD3DC08C9182FD2FC08C9180FF1DC076
S1130600EA01888190E02115310581F08830910557
S113061068F46491E70168833196215031090196A9
S11306202115310519F08830910599F7672F08973E
S113063009F0612F8C918E778C932115310581F609
S11306406111CECF09C08EB3882399F0853099F01B
S1130650808183FF03C011C0E8EEF0E0808182FF57
S1130660F2CF80E00BC082E009C083E007C081E0E4
S113067005C082E003C083E001C081E0DF91CF9137
S11306801F91FF90EF9008958F929F92BF92CF9207
S1130690DF92EF92FF920F931F93CF93DF938530F6
S11306A070F126C0292F2F70E7012883891731F0B4
S11306B0E80178812081E401588103C0242F762F3A
S11306C05B2D21FF12C03C913E7F3C9330813D7FE6
S11306D030833C9131603C93E80178832083E401CA
S11306E05883E6012881222344F49F5F9530D1F694
S11306F08F708093E90081E021C080E01FC0982FB3
S11307009F709093E900982F242F762F50E0ABEE42
S1130710B0E0EDEEF0E00CEE10E00F2EF0EF8F2ED7
S1130720912CF02D0F2EFEEECF2ED12CF02D0F2E6E
S1130730F9EEEF2EF12CF02DB12CC3CFDF91CF9138
S11307401F910F91FF90EF90DF90CF90BF909F90FB
S11307508F900895EF92FF920F931F93CF93DF939F
S11307606623E9F1062FC82FD92F10E00F2EF6E0EB
S1130770FF2EF02D6894EE24E1F85881552349F1B9
S11307809C81E981FA816B81852F8F70853048F5D2
S1130790923010F44E2D01C04F2DE930F10550F088
S11307A028E030E090E09F5F220F331F2E173F07B1
S11307B0D0F301C090E09295907F492B6295660F2B
S11307C0660F607C551F5527551F652B5DDF8823F9
S11307D049F01F5F25960113D0CF81E003C081E06B
S11307E001C080E0DF91CF911F910F91FF90EF90B6
S11307F008958091380288233CF0E8EEF0E012C0BE
S11308008EB3811103C00895E8EEF0E0808182FF89
S1130810F7CFE8EEF0E080818B77808308958EB384
S1130820882341F0808180FFFACFE8EEF0E08081F8
S11308308E77808308950F931F93CF93DF93209136
S1130840E4003091E50065E6ACEEB0E0E8EEF0E0FF
S11308500BEE10E044EE50E001C09C019C91892F06
S1130860817090FD1CC01FC08EB3882381F0853039
S113087081F0E801888185FD0EC0EA0188819981B3
S11308802817390759F3615041F784E00FC082E01B
S11308900DC083E00BC081E009C080E007C0808107
S11308A080FFE2CFFACF908192FFDECFDF91CF912C
S11308B01F910F9108953BD03DD0E8EDF0E0808189
S11308C08F77808380818068808380818F7D80831F
S11308D084E089BD86E089BD09B400FEFDCF1EBA5F
S11308E010923402109236021092350242E060E017
S11308F080E0CADEE1EEF0E080818E7F8083E2EE6C
S1130900F0E0808181608083808188608083E0EE74
S1130910F0E080818E7F80830895E3E6F0E08081BB
S11309208E7F808381E080933702C5CF0895109233
S1130930E20008951092E10008951F920F920FB6FD
S11309400F9211242F933F934F935F936F937F9351
S11309508F939F93AF93BF93EF93FF938091E100A5
S113096082FF0AC08091E20082FF06C0E1EEF0E05F
S113097080818B7F808345D28091E10080FF14C009
S11309808091E20080FF10C0E2EEF0E080818E7F73
S11309908083808180618083E8EDF0E080818062E3
S11309A0808319BC1EBA4BD38091E10084FF2DC013
S11309B08091E20084FF29C084E089BD86E089BD7E
S11309C009B400FEFDCFE8EDF0E080818F7D8083E7
S11309D0E1EEF0E080818F7E8083E2EEF0E08081C2
S11309E08F7E80838081816080838091340288231C
S11309F019F084E08EBB08C08091E300882314F0D2
S1130A0081E001C083E08EBB18D38091E10083FFB5
S1130A1022C08091E20083FF1EC0E1EEF0E08081FD
S1130A20877F808382E08EBB1092340280818E7F28
S1130A308083E2EEF0E080818E7F8083808180611C
S1130A40808342E060E080E01FDEE0EFF0E0808140
S1130A5088608083D6D1FF91EF91BF91AF919F9130
S1130A608F917F916F915F914F913F912F910F9053
S1130A700FBE0F901F9018951F920F920FB60F92F2
S1130A801124EF92FF920F931F932F933F934F9351
S1130A905F936F937F938F939F93AF93BF93CF9302
S1130AA0DF93EF93FF93C091E900CF708091EC0046
S1130AB0D82FD17080FDD0E80F2EF9EEEF2EF12C57
S1130AC0F02DF701108200EF10E0F8018081877F9C
S1130AD08083789421D0F7011082F80180818860A6
S1130AE08083CD2BCF70F701C083FF91EF91DF910D
S1130AF0CF91BF91AF919F918F917F916F915F91B2
S1130B004F913F912F911F910F91FF90EF900F9074
S1130B100FBE0F901F9018950F931F93CF93DF93E1
S1130B20CDB7DEB7AA970FB6F894DEBF0FBECDBF20
S1130B30E8E3F2E020E432E0A1EFB0E08C918193AD
S1130B402E173F07D9F782D28091E80083FF34C182
S1130B50E8E3F2E090818181853009F47FC030F4CC
S1130B608130C9F168F08330B1F126C1883009F4CD
S1130B70F0C0893009F4FDC0863009F01DC190C071
S1130B80903821F0923809F017C108C080913502DD
S1130B9090913602992389F082600FC080913C02C3
S1130BA08F70853008F008C1E9EEF0E08083809111
S1130BB0EB0085FB882780F91082E8EEF0E0908155
S1130BC0977F9083A1EFB0E08C931C9280818E7705
S1130BD080830FDEF1C0992309F4FDC0923009F03F
S1130BE0EBC0FEC091E0833009F090E090933602B0
S1130BF02CC080913C028F709FEF980F943008F0C6
S1130C00DBC08093E9009091EB0090FF1EC09091AF
S1130C103902933031F4EBEEF0E08081806280831E
S1130C2014C0EBEEF0E090819061908321E030E01D
S1130C30A90102C0440F551F8A95E2F7AAEEB0E05D
S1130C404C931C928081886080831092E900E8EEC6
S1130C50F0E08081877F8083CCDDAEC09111ACC091
S1130C6010913A021F77E3EEF0E080818078812BC7
S1130C708083E8EEF0E08081877F8083BADDE8EE50
S1130C80F0E0808180FFFDCFE3EEF0E080818068BA
S1130C908083111102C082E001C083E08EBB8CC04E
S1130CA09058923008F088C080913A0290913B02AB
S1130CB08C3D53E0950799F583E08A838AE2898322
S1130CC05FB7F894DE01139620E03EE041E2E32FA3
S1130CD0F0E040935700849120FF03C082958F7009
S1130CE03F5F8F708A3018F090E0C79602C090E0A2
S1130CF0C0968D939D932F5F243149F75FBF08EE13
S1130D0010E0F8018081877F80836AE270E0CE0181
S1130D100196C9DBF80180818B7780834DC0609197
S1130D203C0270913D02AE014F5F5F4F15DABC018A
S1130D30892B09F441C008EE10E0F8019081977FF7
S1130D40908389819A8126DCF80180818B77808366
S1130D5033C0903889F5E8EEF0E08081877F8083A6
S1130D60809134028093F10080818E77808341DD0D
S1130D7023C0911121C080913A0290913B0299279E
S1130D800297D4F4E8EEF0E08081877F808380913D
S1130D903A02809334022DDD80913402882319F0C5
S1130DA084E08EBB08C08091E300882314F081E0C6
S1130DB001C084E08EBB45D18091E80083FF16C05A
S1130DC0E8EEF0E08081877F8083EBEEF0E08081C5
S1130DD0806280830BC090913A02913069F702CF10
S1130DE080913A02882309F404CF2FCFAA960FB634
S1130DF0F894DEBF0FBECDBFDF91CF911F910F914D
S1130E0008950895CF938EB3882399F0C091E90093
S1130E10CF708091EC00982F917080FD90E8C92BE1
S1130E201092E9008091E80083FD76DECF70C093D4
S1130E30E900CF91089584B7877F84BF0FB6F894F3
S1130E40A895809160008861809360001092600092
S1130E500FBE90E080E80FB6F89480936100909301
S1130E6061000FBE57985F98559A5D9A56CD0895C4
S1130E70E2DFE8E2F2E04FB7F89488EA91E0918388
S1130E808083938382839583848388E292E097832B
S1130E90868320E830E031872087138612864FBF8F
S1130EA0ECE9F1E04FB7F8948CE191E09183808311
S1130EB093838283958384838CE991E097838683EB
S1130EC031872087138612864FBF5D9878940F2E42
S1130ED0F8E2EF2EF2E0FF2EF02D0CE911E00F2ED8
S1130EE0F9EEAF2EB12CF02D0F2EF8EECF2ED12C23
S1130EF0F02D0F2EFFE05F2EF02D612CC8ECD0E01A
S1130F000F2EFEEC8F2E912CF02D8FB7F894D70175
S1130F101A962D913C911B978FBFF701808591857F
S1130F2028173907F9F080E091E0DDD99923D4F04E
S1130F30F701A081B1818C93808191810196918385
S1130F408083268137818217930721F484819581D8
S1130F50918380832FB7F894828593850196938734
S1130F6082872FBF2FB7F894D8011A968D919C9140
S1130F701B972FBF0097B1F1209101012F70F5014C
S1130F802083D6012C9120FF2DC08031910508F0DB
S1130F90852D882339F1782ED8011296ED91FC9194
S1130FA01397608180E091E035D981111BC0F8016D
S1130FB0828193810196938382832681378182176C
S1130FC0930721F484819581938382832FB7F894C6
S1130FD0828593850197938782872FBF5D9A7A9440
S1130FE07110DACF888185FF23C02FB7F894F701F9
S1130FF0828593852FBF892BD9F0A281B3812D914E
S1131000B383A28386819781A817B90721F48481C9
S11310109581938382833FB7F89482859385019762
S1131020938782873FBF888185FFFDCFD4012C93AE
S113103080E091E041D9E6DE68CF5D9808955D983F
S1131040089580E091E0C4D85D98089580E091E02F
S113105081C908951F920F920FB60F9211242F93F6
S11310603F934F935F938F939F93AF93BF93EF936C
S1131070FF939091CE005D988EB3843029F58FB79D
S1131080F894ECE9F1E0428553858FBF20853185E2
S113109042175307C9F0A081B1819C93808191814B
S11310A0019691838083268137818217930721F4E7
S11310B084819581918380832FB7F8948285938569
S11310C00196938782872FBFFF91EF91BF91AF91D4
S11310D09F918F915F914F913F912F910F900FBEF0
S11310E00F901F901895CF92DF92EF92FF920F937B
S11310F01F93CF93FC01818D813019F0823019F058
S113110004C0C0E303C0C0E201C0C0E0808D8230EF
S113111009F4C860828D873031F0883031F0863030
S113112029F4C26003C0C46001C0C6605B9A09ECC4
S113113010E0D8011C920F2EF8ECEF2EF12CF02DBC
S1131140D7011C920F2EFAECCF2ED12CF02DD60104
S11311501C922489358946895789DA01C901B695D3
S1131160A79597958795BC01CD0160587B47814E23
S11311709F4F21D0215031093093CD002093CC00D2
S1131180F601C08382E0D7018C9388E9F80180835B
S11311905B985F9887EC90E00197F1F700C000003E
S11311A08BB180588BB9CF911F910F91FF90EF9025
S11311B0DF90CF900895A1E21A2EAA1BBB1BFD015C
S11311C00DC0AA1FBB1FEE1FFF1FA217B307E40722
S11311D0F50720F0A21BB30BE40BF50B661F771F7A
S11311E0881F991F1A9469F760957095809590955A
S11111F09B01AC01BD01CF010895F894FFCF1F
S11311FE00831000000104100000018208000001A9
S10F120E000000000000000000000000D0
S9030000FC
